{
  "contractName": "shop",
  "abi": [
    {
      "inputs": [],
      "stateMutability": "nonpayable",
      "type": "constructor"
    },
    {
      "inputs": [
        {
          "internalType": "uint256",
          "name": "",
          "type": "uint256"
        }
      ],
      "name": "gift_cards",
      "outputs": [
        {
          "internalType": "string",
          "name": "Name",
          "type": "string"
        },
        {
          "internalType": "uint256",
          "name": "Id",
          "type": "uint256"
        },
        {
          "internalType": "uint256",
          "name": "Cost",
          "type": "uint256"
        },
        {
          "internalType": "uint256",
          "name": "Time",
          "type": "uint256"
        }
      ],
      "stateMutability": "view",
      "type": "function"
    },
    {
      "inputs": [
        {
          "internalType": "string",
          "name": "_Name",
          "type": "string"
        },
        {
          "internalType": "uint256",
          "name": "_Id",
          "type": "uint256"
        },
        {
          "internalType": "uint256",
          "name": "_Cost",
          "type": "uint256"
        }
      ],
      "name": "AllItem",
      "outputs": [],
      "stateMutability": "nonpayable",
      "type": "function"
    },
    {
      "inputs": [
        {
          "internalType": "uint256",
          "name": "_Id",
          "type": "uint256"
        }
      ],
      "name": "buy",
      "outputs": [],
      "stateMutability": "payable",
      "type": "function"
    },
    {
      "inputs": [],
      "name": "view_item",
      "outputs": [
        {
          "internalType": "string[]",
          "name": "",
          "type": "string[]"
        }
      ],
      "stateMutability": "view",
      "type": "function"
    }
  ],
  "bytecode": "0x608060405234801561001057600080fd5b5033600360006101000a81548173ffffffffffffffffffffffffffffffffffffffff021916908373ffffffffffffffffffffffffffffffffffffffff160217905550610dbd806100616000396000f3fe60806040526004361061003f5760003560e01c80631f7703e6146100445780634ad3118814610084578063d96a094a146100af578063e3763565146100cb575b600080fd5b34801561005057600080fd5b5061006b600480360381019061006691906104d4565b6100f4565b60405161007b94939291906105a0565b60405180910390f35b34801561009057600080fd5b506100996101bc565b6040516100a691906106f8565b60405180910390f35b6100c960048036038101906100c491906104d4565b610295565b005b3480156100d757600080fd5b506100f260048036038101906100ed919061084f565b61033a565b005b6002818154811061010457600080fd5b9060005260206000209060040201600091509050806000018054610127906108ed565b80601f0160208091040260200160405190810160405280929190818152602001828054610153906108ed565b80156101a05780601f10610175576101008083540402835291602001916101a0565b820191906000526020600020905b81548152906001019060200180831161018357829003601f168201915b5050505050908060010154908060020154908060030154905084565b60606000805480602002602001604051908101604052809291908181526020016000905b8282101561028c5783829060005260206000200180546101ff906108ed565b80601f016020809104026020016040519081016040528092919081815260200182805461022b906108ed565b80156102785780601f1061024d57610100808354040283529160200191610278565b820191906000526020600020905b81548152906001019060200180831161025b57829003601f168201915b5050505050815260200190600101906101e0565b50505050905090565b6000600460008381526020019081526020016000205490503481146102ef576040517f08c379a00000000000000000000000000000000000000000000000000000000081526004016102e69061096a565b60405180910390fd5b6000600160008481526020019081526020016000209080600181540180825580915050600190039060005260206000200160009091909190915090816103359190610b61565b505050565b3373ffffffffffffffffffffffffffffffffffffffff16600360009054906101000a900473ffffffffffffffffffffffffffffffffffffffff1673ffffffffffffffffffffffffffffffffffffffff16146103ca576040517f08c379a00000000000000000000000000000000000000000000000000000000081526004016103c190610c95565b60405180910390fd5b826001600084815260200190815260200160002090816103ea9190610cb5565b508060046000848152602001908152602001600020819055506002604051806080016040528085815260200184815260200183815260200142815250908060018154018082558091505060019003906000526020600020906004020160009091909190915060008201518160000190816104649190610cb5565b506020820151816001015560408201518160020155606082015181600301555050505050565b6000604051905090565b600080fd5b600080fd5b6000819050919050565b6104b18161049e565b81146104bc57600080fd5b50565b6000813590506104ce816104a8565b92915050565b6000602082840312156104ea576104e9610494565b5b60006104f8848285016104bf565b91505092915050565b600081519050919050565b600082825260208201905092915050565b60005b8381101561053b578082015181840152602081019050610520565b60008484015250505050565b6000601f19601f8301169050919050565b600061056382610501565b61056d818561050c565b935061057d81856020860161051d565b61058681610547565b840191505092915050565b61059a8161049e565b82525050565b600060808201905081810360008301526105ba8187610558565b90506105c96020830186610591565b6105d66040830185610591565b6105e36060830184610591565b95945050505050565b600081519050919050565b600082825260208201905092915050565b6000819050602082019050919050565b600082825260208201905092915050565b600061063482610501565b61063e8185610618565b935061064e81856020860161051d565b61065781610547565b840191505092915050565b600061066e8383610629565b905092915050565b6000602082019050919050565b600061068e826105ec565b61069881856105f7565b9350836020820285016106aa85610608565b8060005b858110156106e657848403895281516106c78582610662565b94506106d283610676565b925060208a019950506001810190506106ae565b50829750879550505050505092915050565b600060208201905081810360008301526107128184610683565b905092915050565b600080fd5b600080fd5b7f4e487b7100000000000000000000000000000000000000000000000000000000600052604160045260246000fd5b61075c82610547565b810181811067ffffffffffffffff8211171561077b5761077a610724565b5b80604052505050565b600061078e61048a565b905061079a8282610753565b919050565b600067ffffffffffffffff8211156107ba576107b9610724565b5b6107c382610547565b9050602081019050919050565b82818337600083830152505050565b60006107f26107ed8461079f565b610784565b90508281526020810184848401111561080e5761080d61071f565b5b6108198482856107d0565b509392505050565b600082601f8301126108365761083561071a565b5b81356108468482602086016107df565b91505092915050565b60008060006060848603121561086857610867610494565b5b600084013567ffffffffffffffff81111561088657610885610499565b5b61089286828701610821565b93505060206108a3868287016104bf565b92505060406108b4868287016104bf565b9150509250925092565b7f4e487b7100000000000000000000000000000000000000000000000000000000600052602260045260246000fd5b6000600282049050600182168061090557607f821691505b602082108103610918576109176108be565b5b50919050565b7f4c65737320737566666963656e7420616d6f756e740000000000000000000000600082015250565b600061095460158361050c565b915061095f8261091e565b602082019050919050565b6000602082019050818103600083015261098381610947565b9050919050565b600081549050610999816108ed565b9050919050565b60008190508160005260206000209050919050565b60008190508160005260206000209050919050565b60006020601f8301049050919050565b600082821b905092915050565b600060088302610a177fffffffffffffffffffffffffffffffffffffffffffffffffffffffffffffffff826109da565b610a2186836109da565b95508019841693508086168417925050509392505050565b6000819050919050565b6000610a5e610a59610a548461049e565b610a39565b61049e565b9050919050565b6000819050919050565b610a7883610a43565b610a8c610a8482610a65565b8484546109e7565b825550505050565b600090565b610aa1610a94565b610aac818484610a6f565b505050565b5b81811015610ad057610ac5600082610a99565b600181019050610ab2565b5050565b601f821115610b1557610ae6816109a0565b610aef846109ca565b81016020851015610afe578190505b610b12610b0a856109ca565b830182610ab1565b50505b505050565b600082821c905092915050565b6000610b3860001984600802610b1a565b1980831691505092915050565b6000610b518383610b27565b9150826002028217905092915050565b818103610b6f575050610c47565b610b788261098a565b67ffffffffffffffff811115610b9157610b90610724565b5b610b9b82546108ed565b610ba6828285610ad4565b6000601f831160018114610bd55760008415610bc3578287015490505b610bcd8582610b45565b865550610c40565b601f198416610be3876109b5565b9650610bee866109a0565b60005b82811015610c1657848901548255600182019150600185019450602081019050610bf1565b86831015610c335784890154610c2f601f891682610b27565b8355505b6001600288020188555050505b5050505050505b565b7f596f7520617265206e6f7420616c6c6f77656420746f20646f20746869732000600082015250565b6000610c7f601f8361050c565b9150610c8a82610c49565b602082019050919050565b60006020820190508181036000830152610cae81610c72565b9050919050565b610cbe82610501565b67ffffffffffffffff811115610cd757610cd6610724565b5b610ce182546108ed565b610cec828285610ad4565b600060209050601f831160018114610d1f5760008415610d0d578287015190505b610d178582610b45565b865550610d7f565b601f198416610d2d866109a0565b60005b82811015610d5557848901518255600182019150602085019450602081019050610d30565b86831015610d725784890151610d6e601f891682610b27565b8355505b6001600288020188555050505b50505050505056fea264697066735822122056021e14badcfafb4dd8d3240279417f999e20d5c1fec84e904e5f15fa5c3f1b64736f6c63430008120033",
  "immutableReferences": {},
  "source": "// SPDX-License-Identifier: GPL-3.0\r\n\r\npragma solidity ^0.8.17;\r\n\r\nstruct gift_card {\r\n    string Name;\r\n    uint256 Id;\r\n    uint256 Cost;\r\n    uint256 Time;\r\n}\r\n\r\ncontract shop {\r\n    string[] buyer;\r\n    mapping(uint256 => string) itemlist;\r\n    gift_card[] public gift_cards;\r\n    address seller;\r\n    mapping(uint256 => uint256) cost;\r\n\r\n    constructor() {\r\n        seller = msg.sender;\r\n    }\r\n\r\n    modifier onlyonwner() {\r\n        require(seller == msg.sender, \"You are not allowed to do this \");\r\n        _;\r\n    }\r\n\r\n    function AllItem(\r\n        string memory _Name,\r\n        uint256 _Id,\r\n        uint256 _Cost\r\n    ) public onlyonwner {\r\n        itemlist[_Id] = _Name;\r\n        cost[_Id] = _Cost;\r\n        gift_cards.push(gift_card(_Name, _Id, _Cost, block.timestamp));\r\n    }\r\n\r\n    function buy(uint256 _Id) public payable {\r\n        uint256 n = cost[_Id];\r\n        require(n == msg.value, \"Less sufficent amount\");\r\n        buyer.push(itemlist[_Id]);\r\n    }\r\n\r\n    function view_item() public view returns (string[] memory) {\r\n        return buyer;\r\n    }\r\n}\r\n",
  "sourcePath": "E:\\HackKRMU\\inter-coin\\contracts\\couponContract.sol",
  "compiler": {
    "name": "solc",
    "version": "0.8.18+commit.87f61d96.Emscripten.clang"
  },
  "schemaVersion": "3.4.11",
  "updatedAt": "2023-02-15T19:43:40.494Z",
  "devdoc": {
    "kind": "dev",
    "methods": {},
    "version": 1
  },
  "userdoc": {
    "kind": "user",
    "methods": {},
    "version": 1
  }
}